{"abi":[{"type":"constructor","inputs":[{"name":"_oracle","type":"address","internalType":"address"},{"name":"_safe","type":"address","internalType":"address"}],"stateMutability":"nonpayable"},{"type":"function","name":"cancelClaim","inputs":[],"outputs":[],"stateMutability":"nonpayable"},{"type":"function","name":"claimStartTimestamp","inputs":[],"outputs":[{"name":"","type":"uint256","internalType":"uint256"}],"stateMutability":"view"},{"type":"function","name":"configureInheritance","inputs":[{"name":"_heirs","type":"address[]","internalType":"address[]"},{"name":"_weights","type":"uint256[]","internalType":"uint256[]"},{"name":"_inactivityThreshold","type":"uint256","internalType":"uint256"},{"name":"_quorum","type":"uint256","internalType":"uint256"}],"outputs":[],"stateMutability":"nonpayable"},{"type":"function","name":"executePayout","inputs":[{"name":"_assets","type":"address[]","internalType":"address[]"}],"outputs":[],"stateMutability":"nonpayable"},{"type":"function","name":"heirs","inputs":[{"name":"","type":"address","internalType":"address"}],"outputs":[{"name":"weight","type":"uint256","internalType":"uint256"},{"name":"hasSigned","type":"bool","internalType":"bool"}],"stateMutability":"view"},{"type":"function","name":"heirsList","inputs":[{"name":"","type":"uint256","internalType":"uint256"}],"outputs":[{"name":"","type":"address","internalType":"address"}],"stateMutability":"view"},{"type":"function","name":"inactivityThreshold","inputs":[],"outputs":[{"name":"","type":"uint256","internalType":"uint256"}],"stateMutability":"view"},{"type":"function","name":"initiateClaim","inputs":[],"outputs":[],"stateMutability":"nonpayable"},{"type":"function","name":"lastProofOfLife","inputs":[],"outputs":[{"name":"","type":"uint256","internalType":"uint256"}],"stateMutability":"view"},{"type":"function","name":"oracle","inputs":[],"outputs":[{"name":"","type":"address","internalType":"address"}],"stateMutability":"view"},{"type":"function","name":"owner","inputs":[],"outputs":[{"name":"","type":"address","internalType":"address"}],"stateMutability":"view"},{"type":"function","name":"quorumRequired","inputs":[],"outputs":[{"name":"","type":"uint256","internalType":"uint256"}],"stateMutability":"view"},{"type":"function","name":"signClaim","inputs":[],"outputs":[],"stateMutability":"nonpayable"},{"type":"function","name":"signedHeirsCount","inputs":[],"outputs":[{"name":"","type":"uint256","internalType":"uint256"}],"stateMutability":"view"},{"type":"function","name":"submitProofOfLife","inputs":[],"outputs":[],"stateMutability":"nonpayable"},{"type":"event","name":"ClaimCancelled","inputs":[],"anonymous":false},{"type":"event","name":"ClaimInitiated","inputs":[{"name":"initiator","type":"address","indexed":false,"internalType":"address"},{"name":"timestamp","type":"uint256","indexed":false,"internalType":"uint256"}],"anonymous":false},{"type":"event","name":"ClaimSigned","inputs":[{"name":"heir","type":"address","indexed":false,"internalType":"address"},{"name":"currentSignatures","type":"uint256","indexed":false,"internalType":"uint256"}],"anonymous":false},{"type":"event","name":"InheritanceConfigured","inputs":[{"name":"inactivityThreshold","type":"uint256","indexed":false,"internalType":"uint256"},{"name":"quorumRequired","type":"uint256","indexed":false,"internalType":"uint256"}],"anonymous":false},{"type":"event","name":"PayoutExecuted","inputs":[{"name":"totalDistributed","type":"uint256","indexed":false,"internalType":"uint256"}],"anonymous":false},{"type":"event","name":"ProofOfLifeSubmitted","inputs":[{"name":"timestamp","type":"uint256","indexed":false,"internalType":"uint256"}],"anonymous":false}],"bytecode":{"object":"0x608060405234801562000010575f80fd5b50604051620028fc380380620028fc833981810160405281019062000036919062000129565b8160015f6101000a81548173ffffffffffffffffffffffffffffffffffffffff021916908373ffffffffffffffffffffffffffffffffffffffff160217905550805f806101000a81548173ffffffffffffffffffffffffffffffffffffffff021916908373ffffffffffffffffffffffffffffffffffffffff1602179055504260038190555050506200016e565b5f80fd5b5f73ffffffffffffffffffffffffffffffffffffffff82169050919050565b5f620000f382620000c8565b9050919050565b6200010581620000e7565b811462000110575f80fd5b50565b5f815190506200012381620000fa565b92915050565b5f8060408385031215620001425762000141620000c4565b5b5f620001518582860162000113565b9250506020620001648582860162000113565b9150509250929050565b612780806200017c5f395ff3fe608060405234801561000f575f80fd5b50600436106100f3575f3560e01c8063aefad0b211610095578063ea9f244111610064578063ea9f244114610217578063f45b587c14610221578063f51a7a3e14610252578063fcf3bb191461026e576100f3565b8063aefad0b21461018d578063b09412ef146101bd578063cca7ca5e146101db578063dfc5d02f146101f9576100f3565b80637dc0d1d0116100d15780637dc0d1d0146101295780638da5cb5b146101475780639ec8627614610165578063acf9a12714610183576100f3565b8063088868e8146100f75780632b2bd2d8146101155780632bd7cc0f1461011f575b5f80fd5b6100ff61028a565b60405161010c919061176a565b60405180910390f35b61011d610290565b005b6101276104c6565b005b610131610603565b60405161013e91906117c2565b60405180910390f35b61014f610628565b60405161015c91906117c2565b60405180910390f35b61016d61064b565b60405161017a919061176a565b60405180910390f35b61018b610651565b005b6101a760048036038101906101a2919061180d565b6108a2565b6040516101b491906117c2565b60405180910390f35b6101c56108dd565b6040516101d2919061176a565b60405180910390f35b6101e36108e3565b6040516101f0919061176a565b60405180910390f35b6102016108e9565b60405161020e919061176a565b60405180910390f35b61021f6108ef565b005b61023b60048036038101906102369190611862565b610a31565b6040516102499291906118a7565b60405180910390f35b61026c6004803603810190610267919061192f565b610a5d565b005b610288600480360381019061028391906119cf565b6110e6565b005b60055481565b5f60085f3373ffffffffffffffffffffffffffffffffffffffff1673ffffffffffffffffffffffffffffffffffffffff1681526020019081526020015f205f015411610311576040517f08c379a000000000000000000000000000000000000000000000000000000000815260040161030890611acc565b60405180910390fd5b5f60025411610355576040517f08c379a000000000000000000000000000000000000000000000000000000000815260040161034c90611b34565b60405180910390fd5b6002546003546103659190611b7f565b42116103a6576040517f08c379a000000000000000000000000000000000000000000000000000000000815260040161039d90611bfc565b60405180910390fd5b5f600454146103ea576040517f08c379a00000000000000000000000000000000000000000000000000000000081526004016103e190611c64565b60405180910390fd5b42600481905550600160085f3373ffffffffffffffffffffffffffffffffffffffff1673ffffffffffffffffffffffffffffffffffffffff1681526020019081526020015f206001015f6101000a81548160ff02191690831515021790555060016006819055507f4f1e5c1e9ea1961f09ecc4f15867798c211e51a30882ec1d85325e5cea3e553a3342604051610482929190611c82565b60405180910390a17fef4e91ecf16e6da26ba0e4ac5e131e545dd05ff116031a0df4b43cd880ca6be73360016040516104bc929190611ceb565b60405180910390a1565b6104ce6115f9565b5f60045411610512576040517f08c379a000000000000000000000000000000000000000000000000000000000815260040161050990611d5c565b60405180910390fd5b5f6004819055505f6006819055505f5b6007805490508110156105d4575f60085f6007848154811061054757610546611d7a565b5b905f5260205f20015f9054906101000a900473ffffffffffffffffffffffffffffffffffffffff1673ffffffffffffffffffffffffffffffffffffffff1673ffffffffffffffffffffffffffffffffffffffff1681526020019081526020015f206001015f6101000a81548160ff02191690831515021790555080806105cc90611da7565b915050610522565b507f989bcb20566fef273c62f42cb9d92ca62682ef4706955c7af50f39cf90b5312e60405160405180910390a1565b60015f9054906101000a900473ffffffffffffffffffffffffffffffffffffffff1681565b5f8054906101000a900473ffffffffffffffffffffffffffffffffffffffff1681565b60025481565b5f60045411610695576040517f08c379a000000000000000000000000000000000000000000000000000000000815260040161068c90611e38565b60405180910390fd5b621275006004546106a69190611b7f565b4211156106e8576040517f08c379a00000000000000000000000000000000000000000000000000000000081526004016106df90611ea0565b60405180910390fd5b5f60085f3373ffffffffffffffffffffffffffffffffffffffff1673ffffffffffffffffffffffffffffffffffffffff1681526020019081526020015f205f015411610769576040517f08c379a000000000000000000000000000000000000000000000000000000000815260040161076090611acc565b60405180910390fd5b60085f3373ffffffffffffffffffffffffffffffffffffffff1673ffffffffffffffffffffffffffffffffffffffff1681526020019081526020015f206001015f9054906101000a900460ff16156107f6576040517f08c379a00000000000000000000000000000000000000000000000000000000081526004016107ed90611f08565b60405180910390fd5b600160085f3373ffffffffffffffffffffffffffffffffffffffff1673ffffffffffffffffffffffffffffffffffffffff1681526020019081526020015f206001015f6101000a81548160ff02191690831515021790555060065f81548092919061086090611da7565b91905055507fef4e91ecf16e6da26ba0e4ac5e131e545dd05ff116031a0df4b43cd880ca6be733600654604051610898929190611c82565b60405180910390a1565b600781815481106108b1575f80fd5b905f5260205f20015f915054906101000a900473ffffffffffffffffffffffffffffffffffffffff1681565b60035481565b60065481565b60045481565b6108f76115f9565b426003819055505f60045411156109f8575f6004819055505f6006819055505f5b6007805490508110156109ca575f60085f6007848154811061093d5761093c611d7a565b5b905f5260205f20015f9054906101000a900473ffffffffffffffffffffffffffffffffffffffff1673ffffffffffffffffffffffffffffffffffffffff1673ffffffffffffffffffffffffffffffffffffffff1681526020019081526020015f206001015f6101000a81548160ff02191690831515021790555080806109c290611da7565b915050610918565b507f989bcb20566fef273c62f42cb9d92ca62682ef4706955c7af50f39cf90b5312e60405160405180910390a15b7ff87300b4a5d7c91330fbd1c0f913d6d3f2f174c8db41b7579d52c08931e6862a42604051610a27919061176a565b60405180910390a1565b6008602052805f5260405f205f91509050805f015490806001015f9054906101000a900460ff16905082565b5f60045411610aa1576040517f08c379a0000000000000000000000000000000000000000000000000000000008152600401610a9890611e38565b60405180910390fd5b62127500600454610ab29190611b7f565b421115610af4576040517f08c379a0000000000000000000000000000000000000000000000000000000008152600401610aeb90611ea0565b60405180910390fd5b6005546006541015610b3b576040517f08c379a0000000000000000000000000000000000000000000000000000000008152600401610b3290611f70565b60405180910390fd5b5f5b8282905081101561106d575f838383818110610b5c57610b5b611d7a565b5b9050602002016020810190610b719190611862565b90505f73ffffffffffffffffffffffffffffffffffffffff168173ffffffffffffffffffffffffffffffffffffffff1603610d93575f805f9054906101000a900473ffffffffffffffffffffffffffffffffffffffff1673ffffffffffffffffffffffffffffffffffffffff163190505f811115610d8d575f5b600780549050811015610d8b575f60078281548110610c0d57610c0c611d7a565b5b905f5260205f20015f9054906101000a900473ffffffffffffffffffffffffffffffffffffffff1690505f61271060085f8473ffffffffffffffffffffffffffffffffffffffff1673ffffffffffffffffffffffffffffffffffffffff1681526020019081526020015f205f015485610c869190611f8e565b610c909190611ffc565b90505f811115610d76575f8054906101000a900473ffffffffffffffffffffffffffffffffffffffff1673ffffffffffffffffffffffffffffffffffffffff1663468721a783835f6040518463ffffffff1660e01b8152600401610cf6939291906120d2565b6020604051808303815f875af1158015610d12573d5f803e3d5ffd5b505050506040513d601f19601f82011682018060405250810190610d369190612144565b610d75576040517f08c379a0000000000000000000000000000000000000000000000000000000008152600401610d6c906121b9565b60405180910390fd5b5b50508080610d8390611da7565b915050610beb565b505b50611059565b5f8173ffffffffffffffffffffffffffffffffffffffff166370a082315f8054906101000a900473ffffffffffffffffffffffffffffffffffffffff166040518263ffffffff1660e01b8152600401610dec91906117c2565b602060405180830381865afa158015610e07573d5f803e3d5ffd5b505050506040513d601f19601f82011682018060405250810190610e2b91906121eb565b90505f811115611057575f5b600780549050811015611055575f60078281548110610e5957610e58611d7a565b5b905f5260205f20015f9054906101000a900473ffffffffffffffffffffffffffffffffffffffff1690505f61271060085f8473ffffffffffffffffffffffffffffffffffffffff1673ffffffffffffffffffffffffffffffffffffffff1681526020019081526020015f205f015485610ed29190611f8e565b610edc9190611ffc565b90505f811115611040575f63a9059cbb60e01b8383604051602401610f02929190611c82565b604051602081830303815290604052907bffffffffffffffffffffffffffffffffffffffffffffffffffffffff19166020820180517bffffffffffffffffffffffffffffffffffffffffffffffffffffffff838183161783525050505090505f8054906101000a900473ffffffffffffffffffffffffffffffffffffffff1673ffffffffffffffffffffffffffffffffffffffff1663468721a7875f845f6040518563ffffffff1660e01b8152600401610fbf94939291906122c9565b6020604051808303815f875af1158015610fdb573d5f803e3d5ffd5b505050506040513d601f19601f82011682018060405250810190610fff9190612144565b61103e576040517f08c379a00000000000000000000000000000000000000000000000000000000081526004016110359061235d565b60405180910390fd5b505b5050808061104d90611da7565b915050610e37565b505b505b50808061106590611da7565b915050610b3d565b505f6004819055507f921111cf8da02f50d459c9db80510eeb1dc2443e86b4a9da3f5e4c8b1e857ec25f8054906101000a900473ffffffffffffffffffffffffffffffffffffffff1673ffffffffffffffffffffffffffffffffffffffff16316040516110da919061176a565b60405180910390a15050565b6110ee611688565b838390508686905014611136576040517f08c379a000000000000000000000000000000000000000000000000000000000815260040161112d906123c5565b60405180910390fd5b5f868690501161117b576040517f08c379a00000000000000000000000000000000000000000000000000000000081526004016111729061242d565b60405180910390fd5b5f8111801561118d5750858590508111155b6111cc576040517f08c379a00000000000000000000000000000000000000000000000000000000081526004016111c390612495565b60405180910390fd5b5f821161120e576040517f08c379a0000000000000000000000000000000000000000000000000000000008152600401611205906124fd565b60405180910390fd5b5f5b6007805490508110156112c45760085f6007838154811061123457611233611d7a565b5b905f5260205f20015f9054906101000a900473ffffffffffffffffffffffffffffffffffffffff1673ffffffffffffffffffffffffffffffffffffffff1673ffffffffffffffffffffffffffffffffffffffff1681526020019081526020015f205f8082015f9055600182015f6101000a81549060ff0219169055505080806112bc90611da7565b915050611210565b5060075f6112d29190611719565b5f805b8787905081101561154f575f73ffffffffffffffffffffffffffffffffffffffff1688888381811061130a57611309611d7a565b5b905060200201602081019061131f9190611862565b73ffffffffffffffffffffffffffffffffffffffff1603611375576040517f08c379a000000000000000000000000000000000000000000000000000000000815260040161136c90612565565b60405180910390fd5b5f86868381811061138957611388611d7a565b5b90506020020135116113d0576040517f08c379a00000000000000000000000000000000000000000000000000000000081526004016113c7906125cd565b60405180910390fd5b8585828181106113e3576113e2611d7a565b5b90506020020135826113f59190611b7f565b9150604051806040016040528087878481811061141557611414611d7a565b5b9050602002013581526020015f151581525060085f8a8a8581811061143d5761143c611d7a565b5b90506020020160208101906114529190611862565b73ffffffffffffffffffffffffffffffffffffffff1673ffffffffffffffffffffffffffffffffffffffff1681526020019081526020015f205f820151815f01556020820151816001015f6101000a81548160ff02191690831515021790555090505060078888838181106114ca576114c9611d7a565b5b90506020020160208101906114df9190611862565b908060018154018082558091505060019003905f5260205f20015f9091909190916101000a81548173ffffffffffffffffffffffffffffffffffffffff021916908373ffffffffffffffffffffffffffffffffffffffff160217905550808061154790611da7565b9150506112d5565b506127108114611594576040517f08c379a000000000000000000000000000000000000000000000000000000000815260040161158b90612635565b60405180910390fd5b8260028190555081600581905550426003819055505f6004819055505f6006819055507f0c71bcb676b34a441341648b3ca8b0cf03e5809d9126963fc501bfee6acdc33283836040516115e8929190612653565b60405180910390a150505050505050565b5f8054906101000a900473ffffffffffffffffffffffffffffffffffffffff1673ffffffffffffffffffffffffffffffffffffffff163373ffffffffffffffffffffffffffffffffffffffff1614611686576040517f08c379a000000000000000000000000000000000000000000000000000000000815260040161167d906126c4565b60405180910390fd5b565b60015f9054906101000a900473ffffffffffffffffffffffffffffffffffffffff1673ffffffffffffffffffffffffffffffffffffffff163373ffffffffffffffffffffffffffffffffffffffff1614611717576040517f08c379a000000000000000000000000000000000000000000000000000000000815260040161170e9061272c565b60405180910390fd5b565b5080545f8255905f5260205f20908101906117349190611737565b50565b5b8082111561174e575f815f905550600101611738565b5090565b5f819050919050565b61176481611752565b82525050565b5f60208201905061177d5f83018461175b565b92915050565b5f73ffffffffffffffffffffffffffffffffffffffff82169050919050565b5f6117ac82611783565b9050919050565b6117bc816117a2565b82525050565b5f6020820190506117d55f8301846117b3565b92915050565b5f80fd5b5f80fd5b6117ec81611752565b81146117f6575f80fd5b50565b5f81359050611807816117e3565b92915050565b5f60208284031215611822576118216117db565b5b5f61182f848285016117f9565b91505092915050565b611841816117a2565b811461184b575f80fd5b50565b5f8135905061185c81611838565b92915050565b5f60208284031215611877576118766117db565b5b5f6118848482850161184e565b91505092915050565b5f8115159050919050565b6118a18161188d565b82525050565b5f6040820190506118ba5f83018561175b565b6118c76020830184611898565b9392505050565b5f80fd5b5f80fd5b5f80fd5b5f8083601f8401126118ef576118ee6118ce565b5b8235905067ffffffffffffffff81111561190c5761190b6118d2565b5b602083019150836020820283011115611928576119276118d6565b5b9250929050565b5f8060208385031215611945576119446117db565b5b5f83013567ffffffffffffffff811115611962576119616117df565b5b61196e858286016118da565b92509250509250929050565b5f8083601f84011261198f5761198e6118ce565b5b8235905067ffffffffffffffff8111156119ac576119ab6118d2565b5b6020830191508360208202830111156119c8576119c76118d6565b5b9250929050565b5f805f805f80608087890312156119e9576119e86117db565b5b5f87013567ffffffffffffffff811115611a0657611a056117df565b5b611a1289828a016118da565b9650965050602087013567ffffffffffffffff811115611a3557611a346117df565b5b611a4189828a0161197a565b94509450506040611a5489828a016117f9565b9250506060611a6589828a016117f9565b9150509295509295509295565b5f82825260208201905092915050565b7f4e6f7420612064657369676e61746564206865697200000000000000000000005f82015250565b5f611ab6601583611a72565b9150611ac182611a82565b602082019050919050565b5f6020820190508181035f830152611ae381611aaa565b9050919050565b7f496e6865726974616e6365206e6f7420636f6e666967757265640000000000005f82015250565b5f611b1e601a83611a72565b9150611b2982611aea565b602082019050919050565b5f6020820190508181035f830152611b4b81611b12565b9050919050565b7f4e487b71000000000000000000000000000000000000000000000000000000005f52601160045260245ffd5b5f611b8982611752565b9150611b9483611752565b9250828201905080821115611bac57611bab611b52565b5b92915050565b7f4f776e6572206973206e6f7420696e61637469766520796574000000000000005f82015250565b5f611be6601983611a72565b9150611bf182611bb2565b602082019050919050565b5f6020820190508181035f830152611c1381611bda565b9050919050565b7f436c61696d20616c726561647920696e697469617465640000000000000000005f82015250565b5f611c4e601783611a72565b9150611c5982611c1a565b602082019050919050565b5f6020820190508181035f830152611c7b81611c42565b9050919050565b5f604082019050611c955f8301856117b3565b611ca2602083018461175b565b9392505050565b5f819050919050565b5f819050919050565b5f611cd5611cd0611ccb84611ca9565b611cb2565b611752565b9050919050565b611ce581611cbb565b82525050565b5f604082019050611cfe5f8301856117b3565b611d0b6020830184611cdc565b9392505050565b7f4e6f2061637469766520636c61696d00000000000000000000000000000000005f82015250565b5f611d46600f83611a72565b9150611d5182611d12565b602082019050919050565b5f6020820190508181035f830152611d7381611d3a565b9050919050565b7f4e487b71000000000000000000000000000000000000000000000000000000005f52603260045260245ffd5b5f611db182611752565b91507fffffffffffffffffffffffffffffffffffffffffffffffffffffffffffffffff8203611de357611de2611b52565b5b600182019050919050565b7f436c61696d206e6f7420696e69746961746564000000000000000000000000005f82015250565b5f611e22601383611a72565b9150611e2d82611dee565b602082019050919050565b5f6020820190508181035f830152611e4f81611e16565b9050919050565b7f477261636520706572696f6420657870697265640000000000000000000000005f82015250565b5f611e8a601483611a72565b9150611e9582611e56565b602082019050919050565b5f6020820190508181035f830152611eb781611e7e565b9050919050565b7f416c7265616479207369676e65640000000000000000000000000000000000005f82015250565b5f611ef2600e83611a72565b9150611efd82611ebe565b602082019050919050565b5f6020820190508181035f830152611f1f81611ee6565b9050919050565b7f51756f72756d206e6f74207265616368656400000000000000000000000000005f82015250565b5f611f5a601283611a72565b9150611f6582611f26565b602082019050919050565b5f6020820190508181035f830152611f8781611f4e565b9050919050565b5f611f9882611752565b9150611fa383611752565b9250828202611fb181611752565b91508282048414831517611fc857611fc7611b52565b5b5092915050565b7f4e487b71000000000000000000000000000000000000000000000000000000005f52601260045260245ffd5b5f61200682611752565b915061201183611752565b92508261202157612020611fcf565b5b828204905092915050565b5f82825260208201905092915050565b50565b5f61204a5f8361202c565b91506120558261203c565b5f82019050919050565b7f4e487b71000000000000000000000000000000000000000000000000000000005f52602160045260245ffd5b6002811061209d5761209c61205f565b5b50565b5f8190506120ad8261208c565b919050565b5f6120bc826120a0565b9050919050565b6120cc816120b2565b82525050565b5f6080820190506120e55f8301866117b3565b6120f2602083018561175b565b81810360408301526121038161203f565b905061211260608301846120c3565b949350505050565b6121238161188d565b811461212d575f80fd5b50565b5f8151905061213e8161211a565b92915050565b5f60208284031215612159576121586117db565b5b5f61216684828501612130565b91505092915050565b7f455448207472616e73666572206661696c6564000000000000000000000000005f82015250565b5f6121a3601383611a72565b91506121ae8261216f565b602082019050919050565b5f6020820190508181035f8301526121d081612197565b9050919050565b5f815190506121e5816117e3565b92915050565b5f60208284031215612200576121ff6117db565b5b5f61220d848285016121d7565b91505092915050565b5f819050919050565b5f61223961223461222f84612216565b611cb2565b611752565b9050919050565b6122498161221f565b82525050565b5f81519050919050565b5f5b8381101561227657808201518184015260208101905061225b565b5f8484015250505050565b5f601f19601f8301169050919050565b5f61229b8261224f565b6122a5818561202c565b93506122b5818560208601612259565b6122be81612281565b840191505092915050565b5f6080820190506122dc5f8301876117b3565b6122e96020830186612240565b81810360408301526122fb8185612291565b905061230a60608301846120c3565b95945050505050565b7f4552433230207472616e73666572206661696c656400000000000000000000005f82015250565b5f612347601583611a72565b915061235282612313565b602082019050919050565b5f6020820190508181035f8301526123748161233b565b9050919050565b7f417272617973206c656e677468206d69736d61746368000000000000000000005f82015250565b5f6123af601683611a72565b91506123ba8261237b565b602082019050919050565b5f6020820190508181035f8301526123dc816123a3565b9050919050565b7f4e6f20686569727320636f6e66696775726564000000000000000000000000005f82015250565b5f612417601383611a72565b9150612422826123e3565b602082019050919050565b5f6020820190508181035f8301526124448161240b565b9050919050565b7f496e76616c69642071756f72756d0000000000000000000000000000000000005f82015250565b5f61247f600e83611a72565b915061248a8261244b565b602082019050919050565b5f6020820190508181035f8301526124ac81612473565b9050919050565b7f496e76616c696420696e6163746976697479207468726573686f6c64000000005f82015250565b5f6124e7601c83611a72565b91506124f2826124b3565b602082019050919050565b5f6020820190508181035f830152612514816124db565b9050919050565b7f496e76616c6964206865697220616464726573730000000000000000000000005f82015250565b5f61254f601483611a72565b915061255a8261251b565b602082019050919050565b5f6020820190508181035f83015261257c81612543565b9050919050565b7f576569676874206d7573742062652067726561746572207468616e20300000005f82015250565b5f6125b7601d83611a72565b91506125c282612583565b602082019050919050565b5f6020820190508181035f8301526125e4816125ab565b9050919050565b7f57656967687473206d7573742073756d20746f203130303030204250530000005f82015250565b5f61261f601d83611a72565b915061262a826125eb565b602082019050919050565b5f6020820190508181035f83015261264c81612613565b9050919050565b5f6040820190506126665f83018561175b565b612673602083018461175b565b9392505050565b7f4f6e6c79206f776e65722063616e2063616c6c000000000000000000000000005f82015250565b5f6126ae601383611a72565b91506126b98261267a565b602082019050919050565b5f6020820190508181035f8301526126db816126a2565b9050919050565b7f4f6e6c79206f7261636c652063616e2063616c6c0000000000000000000000005f82015250565b5f612716601483611a72565b9150612721826126e2565b602082019050919050565b5f6020820190508181035f8301526127438161270a565b905091905056fea264697066735822122023f93049a5283fb767d2cf8ee70e661a3b311a302e567be7a84ef4ef4112963464736f6c63430008140033","linkReferences":{}},"methodIdentifiers":{"cancelClaim()":"2bd7cc0f","claimStartTimestamp()":"dfc5d02f","configureInheritance(address[],uint256[],uint256,uint256)":"fcf3bb19","executePayout(address[])":"f51a7a3e","heirs(address)":"f45b587c","heirsList(uint256)":"aefad0b2","inactivityThreshold()":"9ec86276","initiateClaim()":"2b2bd2d8","lastProofOfLife()":"b09412ef","oracle()":"7dc0d1d0","owner()":"8da5cb5b","quorumRequired()":"088868e8","signClaim()":"acf9a127","signedHeirsCount()":"cca7ca5e","submitProofOfLife()":"ea9f2441"},"id":0}